:100000000C94E6000C940E010C940E010C940E015D
:100010000C940E010C940E010C940E010C940E0124
:100020000C940E010C940E010C94010A0C9493088C
:100030000C940E010C940E010C940E010C940E0104
:100040000C940E010C940E010C940E010C940E01F4
:100050000C940E010C940E010C940E010C941C03D4
:100060000C940E010C940E010C940E010C940E01D4
:100070000C940E010C940E010C940E010C940E01C4
:100080000C940E010C940E010C940E010C940E01B4
:100090000C940E010C940E010C940E010C940E01A4
:1000A0000C940E010C940E010C940E012B042E04E2
:1000B0001D04210427044F044F044F043204360466
:1000C0003A04400444044F044A04000000020009BA
:1000D0000F0000030401000C0000000000000000FD
:1000E0000000000000000000000408020110408031
:1000F000401020408040800802040180402010020F
:10010000011080102040402004040404040304056E
:1001100002020202040302020202060606060606A4
:100120000404020202040400000000250028002B41
:10013000002E00310000000000240027002A002DBE
:10014000003000080B000202020100090400000157
:10015000020200000524001001052401010104240D
:10016000020605240600010705810310004009046A
:100170000100020A00000007050202400000070516
:10018000830240000012010002EF020140412341BE
:100190008000010102030112010002000000404141
:1001A00023418000010102030141726475696E6F91
:1001B000204C4C430041726475696E6F2059756E16
:1001C000000403090400D302B505D70211241FBEA1
:1001D000CFEFDAE0DEBFCDBF11E0A0E0B1E0E0EDAF
:1001E000F6E102C005900D92A03AB107D9F722E0DE
:1001F000A0EAB1E001C01D92A035B207E1F711E01D
:10020000CAECD1E004C02297FE010E94570BC63C05
:10021000D107C9F70E94D3050C945B0B0C94000026
:100220000C9466030F931F93CF93DF93EC01662327
:1002300059F00E94660369837A838B839C83DF91E4
:10024000CF911F910F9108950E94660309811A8131
:100250002B813C81601B710B820B930B6233710508
:100260008105910530F763E070E080E090E00E9446
:100270009503EACF60E00C941201CF92DF92EF92E7
:10028000FF920F931F93CF93DF9300D000D0CDB791
:10029000DEB78C017B01FC0172AB61AB8BE1C82E38
:1002A000D12CC70129833A834B835C830E94A60526
:1002B00029813A814B815C81811113C0F1E0CF1A11
:1002C000D10879F064E670E080E090E029833A8319
:1002D0004B835C830E9495035C814B813A81298129
:1002E000E0CFBA01A901F80181A992A90F900F905E
:1002F0000F900F90DF91CF911F910F91FF90EF9092
:10030000DF90CF900C94A005FC0113AA14AA15AAA3
:1003100016AA1182128213821482411551056105B9
:10032000710521F0CB01BA010C94950308951F9338
:10033000CF93DF93EC01162F63E171E089A99AA9AD
:100340000E94FC054AE050E0612F89A99AA90E9409
:1003500064066AE171E089A99AA90E94FC0562E33A
:1003600070E080E090E0DF91CF911F910C949503B5
:100370001F93CF93DF93EC01162F8D81882389F192
:1003800089A99AA9DC01ED91FC910480F581E02D09
:100390000995892BA9F307C02637310519F12835AE
:1003A000310509F41D8289A99AA9DC01ED91FC911E
:1003B0000480F581E02D09951816190694F489A991
:1003C0009AA9DC01ED91FC910680F781E02D099559
:1003D0009C01332723363105F9F6612FCE010E94A7
:1003E000970183E6DF91CF911F9108950F931F939B
:1003F000CF93DF931F92CDB7DEB78C01662349F010
:1004000081E0F801858360E0C80149830E94B8015A
:100410004981F80145830F90DF91CF911F910F9192
:10042000089540ED57E060E070E080EA91E00E94BE
:10043000840120E032EC41E050E069EE71E080EAB6
:1004400091E00E943D0180EA91E00E943A016BE652
:1004500071E08091D1019091D2010E94FC056AE087
:1004600070E080E090E00E94950341E060E080EA67
:1004700091E00C94F601CF92DF92EF92FF920F93EE
:100480001F930E946603672B682B692B41F40E941F
:100490006603623071058105910508F478C080EA31
:1004A00091E00E9410016093D8017093D90180936C
:1004B000DA019093DB010091DC011091DD012091C4
:1004C000DE013091DF01601771078207930740F466
:1004D0006093DC017093DD018093DE019093DF0176
:1004E0000091DC011091DD012091DE013091DF01EE
:1004F0006B017C01C01AD10AE20AF30A9701860156
:100500000A3F11052105310508F441C06093DC0163
:100510007093DD018093DE019093DF0180EA91E02A
:100520000E943A016DE771E08091D1019091D20172
:100530000E94FC0565E871E08091D1019091D201A3
:100540000E94FC050E946603AB01BC012AE030E07A
:100550008091D1019091D2010E94570667E871E025
:100560008091D1019091D2010E94FC0565E070E07C
:1005700080E090E00E9495036AE070E080E090E007
:100580000E94950361E080EA91E00E94B80168EE64
:1005900073E087ED91E01F910F91FF90EF90DF9056
:1005A000CF900C94E80287ED91E00C94DB0287ED8C
:1005B00091E00C94DF0261E08DE00C94500408950A
:1005C00061E08DE00C94890460E08DE00C94890476
:1005D000CF92DF92EF92FF920F931F93CF93DF930F
:1005E00000D0CDB7DEB78C0169837A830E94E00228
:1005F0006981262F7A81372F37FF02C02F5F3F4F47
:100600006901D594C794EE24D7FCE094FE2CC70171
:10061000B6010E949503C8010E94E402C701B60119
:100620000F900F90DF91CF911F910F91FF90EF905E
:10063000DF90CF900C9495031F920F920FB60F92FC
:1006400011242F933F938F939F93AF93BF938091E8
:10065000E1019091E201A091E301B091E4013091B8
:10066000E00123E0230F2D3720F40196A11DB11DD9
:1006700005C026E8230F0296A11DB11D2093E001BD
:100680008093E1019093E201A093E301B093E40130
:100690008091E5019091E601A091E701B091E80118
:1006A0000196A11DB11D8093E5019093E601A093F1
:1006B000E701B093E801BF91AF919F918F913F9176
:1006C0002F910F900FBE0F901F9018952FB7F89491
:1006D0006091E1017091E2018091E3019091E40168
:1006E0002FBF08953FB7F8948091E5019091E601FE
:1006F000A091E701B091E80126B5A89B05C02F3F66
:1007000019F00196A11DB11D3FBF6627782F892FD3
:100710009A2F620F711D811D911D42E0660F771F98
:10072000881F991F4A95D1F70895CF92DF92EF92D3
:10073000FF92CF93DF936B017C010E947203EB0168
:10074000C114D104E104F10489F00E94970A0E94C7
:1007500072036C1B7D0B683E734090F381E0C81AF6
:10076000D108E108F108C851DC4FEACFDF91CF9101
:10077000FF90EF90DF90CF900895789484B58260D9
:1007800084BD84B5816084BD85B5826085BD85B535
:10079000816085BDEEE6F0E0808181608083E1E8E4
:1007A000F0E010828081826080838081816080831C
:1007B000E0E8F0E0808181608083E1E9F0E0808121
:1007C00082608083808181608083E0E9F0E08081C5
:1007D00081608083E1ECF0E08081846080838081AF
:1007E00082608083808181608083E3ECF0E080819F
:1007F00081608083E0ECF0E0808182608083E2ECC5
:10080000F0E0808181608083EAE7F0E080818460AD
:100810008083808182608083808181608083808109
:1008200080688083089590E0FC013197EF30F105F6
:10083000B0F5EA5AFF4F0C94550B809180008F77EA
:1008400003C0809180008F7D809380000895809107
:100850008000877FF9CF84B58F7702C084B58F7D04
:1008600084BD0895809190008F7707C0809190009B
:100870008F7D03C080919000877F809390000895C2
:100880008091C0008F7703C08091C0008F7D8093DE
:10089000C00008958091C200877F8093C2000895B0
:1008A000CF93DF9390E0FC01E751FF4F2491FC01CF
:1008B000E85FFE4F8491882349F190E0880F991FEB
:1008C000FC01EB5CFE4FA591B491895D9E4FFC014C
:1008D000C591D4919FB7611108C0F8948C9120956F
:1008E00082238C93888182230AC0623051F4F89469
:1008F0008C91322F309583238C938881822B88832F
:1009000004C0F8948C91822B8C939FBFDF91CF9180
:1009100008950F931F93CF93DF931F92CDB7DEB748
:10092000282F30E0F901E653FF4F8491F901E75198
:10093000FF4F1491F901E85FFE4F04910023C9F0C5
:10094000882321F069830E9413046981E02FF0E07D
:10095000EE0FFF1FE95DFE4FA591B4919FB7F8948C
:100960008C91611103C01095812301C0812B8C9360
:100970009FBF0F90DF91CF911F910F910895CF935B
:10098000DF931F92CDB7DEB76983DC01ED91FC9157
:100990000280F381E02D41E050E0BE016F5F7F4FA8
:1009A00009950F90DF91CF910895CF93DF93EC01DC
:1009B0008C859D8597FF05C082E00E947C079D87FE
:1009C0008C878C859D85DF91CF91089583E00C9471
:1009D000F709FC018485958597FD06C082E00E9499
:1009E000240790E00196089582E00E94240790E099
:1009F0000895FC018485958597FD05C02FEF3FEF95
:100A000035872487089582E00C947C07CF93DF9389
:100A1000EC0180910B01882331F083E00E94AD0747
:100A20001816190634F081E090E09B838A8380E0F9
:100A300090E0DF91CF910895FC0120812E5F20830B
:100A400042E450E063E471E080E80C944808FC0163
:100A500021818081813A59F4213209F05CC047E05C
:100A600050E064E071E080E00E94480867C0813295
:100A700009F051C0233289F4838190E0982F8827B0
:100A80003281832BA0E0B0E08093000190930101BC
:100A9000A0930201B09303010FC0203239F467E044
:100AA00070E084E091E00E9479080AC0223221F4CB
:100AB000828180930B0104C02D7F203209F03EC05B
:100AC0008091040190910501A0910601B091070168
:100AD000803B9440A105B10501F580910B0180FD9B
:100AE0001CC080910008909101089093FF0A8093A8
:100AF000FE0A87E797E790930108809300082BE0B0
:100B000088E190E00FB6F894A895809360000FBE3E
:100B10002093600013C080E0089588E10FB6F89438
:100B200080936000109260000FBEA8958091FE0A2D
:100B30009091FF0A909301088093000881E0089546
:100B40002FEF3FEFFC01358724870895CF93C091A5
:100B50000B016AE070E080E090E00E94950381E084
:100B6000C11101C080E0CF9108951092EC01109264
:100B7000EB0188EE93E0A0E0B0E08093ED0190936C
:100B8000EE01A093EF01B093F00184E991E090931E
:100B9000EA018093E9018FEF9FEF9093F601809334
:100BA000F501089508950E94BD030E94D20589E3CE
:100BB00092E00E94840A0E941102C0E0D0E00E94EC
:100BC0003B022097E1F30E940000F9CF6115710507
:100BD00081F0DB010D900020E9F7AD014150510992
:100BE000461B570BDC01ED91FC910280F381E02D57
:100BF000099480E090E008950C94E6058F929F920E
:100C0000AF92BF92CF92DF92EF92FF920F931F931A
:100C1000CF93DF93CDB7DEB7A1970FB6F894DEBFC1
:100C20000FBECDBF7C01C42EE52FCB01D22E19A261
:100C300021E02D1510F02AE0D22E8E010F5D1F4FFE
:100C40008D2C912CA12CB12C6C2D7E2FA501940103
:100C50000E94330B8C2DD29E801911240150110952
:100C60008A3014F4805D01C0895CF801808321150D
:100C700031054105510521F0C22EE32FCA01E4CF11
:100C8000B801C7010E94E605A1960FB6F894DEBF31
:100C90000FBECDBFDF91CF911F910F91FF90EF90CD
:100CA000DF90CF90BF90AF909F908F9008952115C7
:100CB000310541F4DC01ED91FC910190F081E02DD2
:100CC000642F09940C94FE059A01462F50E060E0D1
:100CD00070E00C945706615030F02091F100FC0157
:100CE00020830196F8CF289884E6809342020895E5
:100CF00040913D0250913E0220913B0230913C02D6
:100D000042175307B4F49091E8009570E1F3909185
:100D1000E80092FD19C08093F10080913D0290910E
:100D20003E0201968F739927892B19F48EEF8093D9
:100D3000E80080913D0290913E02019690933E0220
:100D400080933D0281E0089580E00895CF92DF9284
:100D5000EF92FF920F931F93CF93DF931F92CDB724
:100D6000DEB7082F162FF42E862F880F8E5F9983FB
:100D70000E94780683E00E947806E02EC02E9981BA
:100D8000D92E8C2D8E19811798F4F601F7FE02C02A
:100D9000849101C080810E947806082F80E00E9423
:100DA00078068023FFEFCF1ADF0A8111EACF01C056
:100DB00081E00F90DF91CF911F910F91FF90EF9005
:100DC000DF90CF9008958091D70081608093D70005
:100DD00080EA8093D80089B5806189BD89B5826039
:100DE00089BD09B400FEFDCF61E070E080E090E0D5
:100DF0000E9495038091D8008F7C80618093D800F9
:100E00008091E000807F8093E0000895CF93DF938E
:100E10001F92CDB7DEB71982CE0101960E941C0544
:100E20000E941F0BBE016F5F7F4F0E94980A89814D
:100E30000F90DF91CF9108952FB7FC012083F89494
:100E400067706093E9000895CF93DF931F92CDB749
:100E5000DEB7682FCE0101960E941C078091F20038
:100E600099819FBF0F90DF91CF910895FF920F93CB
:100E70001F93CF93DF9300D0CDB7DEB7F62E8A0154
:100E800090914102992311F057FF03C08FEF9FEF1C
:100E90002BC0682FCE0101967A830E941C07809197
:100EA000F20090E0A8017A81801791070CF4AC0160
:100EB000EF2DF72FF40E84E6FE1639F02898809374
:100EC00042029091F1009193F7CF4115510521F025
:100ED0008091F200882321F089818FBFCA0104C06C
:100EE0008BE68093E800F8CF0F900F90DF91CF91C1
:100EF0001F910F91FF900895CF93DF931F92CDB76D
:100F0000DEB741E050E0BE016F5F7F4F0E943607C1
:100F1000019719F4898190E002C08FEF9FEF0F9045
:100F2000DF91CF910895CF93DF931F92CDB7DEB7B6
:100F3000682FCE0101960E941C079091E800892F2E
:100F4000807295FF04C09091F20080E4891B998122
:100F50009FBF0F90DF91CF9108956F927F928F92F4
:100F60009F92AF92BF92CF92DF92EF92FF920F9338
:100F70001F93CF93DF931F92CDB7DEB7782E7B01FF
:100F8000C42EB52E80914102882369F0042F152FBD
:100F90008AEFD82E872D8072982E9AE3A92E872D5E
:100FA0008074882E11C08FEF9FEF57C0872D0E944D
:100FB0009307682E81110CC0DA94A9F361E070E008
:100FC00080E090E00E9495030115110579F73BC080
:100FD000282F30E0021713070CF4602E672DCE0186
:100FE00001960E941C078091E80085FF29C0262DEC
:100FF00030E0021B130B992039F06A948FEF6816CA
:10100000B1F01092F100F9CFF701862D77FE07C0FD
:10101000815058F094919093F1003196F9CF81501E
:1010200020F091919093F100FACFE20EF31E80919F
:10103000E80085FF0FC00115110511F481100AC0E9
:1010400089818FBFC1CF5D9884E6809343028C2D48
:101050009B2D03C0A092E800F3CF0F90DF91CF91BA
:101060001F910F91FF90EF90DF90CF90BF90AF90C6
:101070009F908F907F906F9008951092E90010924A
:101080003E0210923D0290933C0280933B020895F1
:10109000CF92DF92FF920F931F93CF93DF9300D0F5
:1010A000CDB7DEB7F82E8A016B0101151105B1F03D
:1010B000F601F7FE02C0849101C0808149835A8302
:1010C0000E94780601501109FFEFCF1ADF0A49810B
:1010D0005A818111EACF8FEF9FEF01C0CA010F90B3
:1010E0000F90DF91CF911F910F91FF90DF90CF90E4
:1010F00008951F93CF93DF931F92CDB7DEB7162FBE
:101100002091E80022FFFCCF612F79830E946B06BB
:101110008BEF8093E800812F7981972F0F90DF91DB
:10112000CF911F9108951F920F920FB60F92112425
:10113000DF92EF92FF920F931F932F933F934F9362
:101140005F936F937F938F939F93AF93BF93EF932F
:10115000FF93CF93DF93CDB7DEB76C97DEBFCDBFE4
:101160001092E9008091E80083FF23C168E0CE017E
:1011700045960E946B0682EF8093E8003D8937FF19
:1011800005C08091E80080FFFCCF03C08EEF809304
:10119000E800832F807609F0F0C02E894F89D88C23
:1011A00021110CC0303829F4809140028093F10065
:1011B00002C01092F1001092F100F4C0842F90E070
:1011C0009D29213049F43111EDC0019709F0EAC0A1
:1011D000809140028D7F0AC0233059F43111E2C062
:1011E000019709F0DFC08091400282608093400245
:1011F000D9C0253041F48091E80080FFFCCF4068E1
:101200004093E300CFC0263009F08DC0EB8CFC8CFE
:1012100022E0D2122CC080E090E00E943D080E94A3
:10122000060799E08E010F5F1F4FF801292F1192D9
:101230002A95E9F79983DA8291E09E8390EA98876C
:101240009AEF998720913D0230913E02275F3F4FF0
:101250003C832B838D83C7010E943D0849E050E009
:10126000B80180E00E9448080E9406079BC0C701A1
:101270000E943D080E941F0BBE016B5E7F4F0E94C3
:10128000C10A009719F00CF08DC090C081E0D8120F
:101290000EC08B8D9C8D089719F481E080933A02E3
:1012A00080913A0281112FC067E971E031C0E3E01B
:1012B000DE127CC08F89882349F1823029F440E80E
:1012C0006BE085EB91E01CC0813029F440E86BE0D5
:1012D00089EA91E015C0833009F068C00E941F0BB5
:1012E0008E010F5F1F4FB8010E94E00AF8010190C4
:1012F0000020E9F73197E01BF10B40E06E2FC801A9
:101300000E94A6064DC065E871E002C061EC71E084
:101310006115710509F44AC0FB01449150E080E871
:101320000E9448083FC0273009F440C0283021F40B
:1013300081E08093F10036C02930A1F53370B1F51A
:10134000EDE0F1E081E021E036E39081992361F066
:101350008093E9002093EB0091919093EC003093FF
:10136000ED008F5F873089F78EE78093EA00109257
:10137000EA008F898093410215C08B8D9C8D0E945D
:101380003D08898D811105C0CE0145960E94270533
:1013900007C00E941F0BBE016B5E7F4F0E94FF0AB9
:1013A000882321F08EEF8093E80003C081E28093D0
:1013B000EB006C960FB6F894DEBF0FBECDBFDF9189
:1013C000CF91FF91EF91BF91AF919F918F917F91BD
:1013D0006F915F914F913F912F911F910F91FF90CE
:1013E000EF90DF900F900FBE0F901F901895809395
:1013F000E9008091F200882319F08AE38093E800E5
:1014000008951F920F920FB60F9211242F933F93BE
:101410004F935F936F937F938F939F93AF93BF93FC
:10142000CF93EF93FF93C091E1008091E100837F20
:101430008093E1008093E100C3FF0FC01092E900A8
:1014400081E08093EB001092EC0082E38093ED004A
:101450001092410288E08093F000C2FF19C083E03F
:101460000E94F70980914302882339F0809143025A
:10147000815080934302882389F18091420288231E
:1014800039F080914202815080934202882341F1D9
:10149000C4FF10C08091E2008E7E81608093E200E4
:1014A0008091E1008F7E8093E10080913F028E7EEB
:1014B000806111C0C0FF16C08091E2008E7E806105
:1014C0008093E2008091E1008E7E8093E100809124
:1014D0003F028E7E816080933F0204C05D9ACDCF33
:1014E000289AD6CFFF91EF91CF91BF91AF919F9165
:1014F0008F917F916F915F914F913F912F910F90BD
:101500000FBE0F901F90189510924102109240024A
:1015100010923F020E94E306E1EEF0E080818E7EB1
:1015200080838DE08093E200559A209A0895089573
:10153000EF92FF920F931F93CF93DF937B01FC01F8
:10154000C281D38100E010E0209781F0E881F98129
:101550000280F381E02DB701CE01099597FD08C007
:10156000080F191F0884D985C02DEECFC80102C00D
:101570008FEF9FEFDF91CF911F910F91FF90EF9031
:1015800008950F931F93CF93DF938B01FC01C281CA
:10159000D381209771F0E881F9810480F581E02DF5
:1015A000B801CE010995009731F40884D985C02D82
:1015B000F0CF80E090E0DF91CF911F910F910895DF
:1015C0000F931F93CF93DF938B01FC01C281D381D3
:1015D000209771F0E881F9810680F781E02DB8014C
:1015E000CE010995080F111D0884D985C02DF0CFB3
:1015F000F8011082DF91CF911F910F9108950F9301
:101600001F93CF93DF938B01FC01C281D38120977D
:1016100071F0E881F9810190F081E02DB801CE01EF
:101620000995811106C00884D985C02DF0CF80E0CE
:1016300001C081E0DF91CF911F910F9108958091BA
:10164000480281110DC082E08093440284E08093BF
:101650004502109247021092460281E080934802B0
:1016600084E492E00895A1E21A2EAA1BBB1BFD019F
:101670000DC0AA1FBB1FEE1FFF1FA217B307E40771
:10168000F50720F0A21BB30BE40BF50B661F771FC9
:10169000881F991F1A9469F76095709580959095A9
:1016A0009B01AC01BD01CF010895EE0FFF1F059016
:1016B000F491E02D099411E0CAECD1E004C0FE01E0
:1016C0000E94570B2296CC3CD107C9F7F894FFCF64
:1016D000FFFFFFFF00E100000000000000C180816B
:1016E000000000564D4450435F005F564D44504348
:1016F0000D0A004572726F723A20417474656D7004
:101700007420746F20736574206120726561642D8C
:101710006F6E6C79207661726961626C65206F72A0
:1017200020646174612074797065206E6F74207319
:101730007570706F727465640D0A00564D44505692
:101740005F317C315F564D4450560D0A00564D4472
:1017500050455F31007C005F564D4450450D0A00F6
:1017600000000000BF040605E904F904D504E604FE
:00000001FF
